{
  "contractName": "Stake",
  "abi": [
    {
      "constant": true,
      "inputs": [],
      "name": "stakeContractBalance",
      "outputs": [
        {
          "name": "",
          "type": "uint256"
        }
      ],
      "payable": false,
      "stateMutability": "view",
      "type": "function"
    },
    {
      "constant": true,
      "inputs": [],
      "name": "bonusRate",
      "outputs": [
        {
          "name": "",
          "type": "uint256"
        }
      ],
      "payable": false,
      "stateMutability": "view",
      "type": "function"
    },
    {
      "constant": true,
      "inputs": [],
      "name": "indexOfPayee",
      "outputs": [
        {
          "name": "",
          "type": "uint256"
        }
      ],
      "payable": false,
      "stateMutability": "view",
      "type": "function"
    },
    {
      "constant": true,
      "inputs": [
        {
          "name": "",
          "type": "address"
        }
      ],
      "name": "users",
      "outputs": [
        {
          "name": "user",
          "type": "address"
        },
        {
          "name": "amountAvailableToWithdraw",
          "type": "uint256"
        },
        {
          "name": "exists",
          "type": "bool"
        },
        {
          "name": "totalAmount",
          "type": "uint256"
        }
      ],
      "payable": false,
      "stateMutability": "view",
      "type": "function"
    },
    {
      "constant": true,
      "inputs": [],
      "name": "indexOfEthSent",
      "outputs": [
        {
          "name": "",
          "type": "uint256"
        }
      ],
      "payable": false,
      "stateMutability": "view",
      "type": "function"
    },
    {
      "constant": true,
      "inputs": [],
      "name": "EthBonus",
      "outputs": [
        {
          "name": "",
          "type": "uint256"
        }
      ],
      "payable": false,
      "stateMutability": "view",
      "type": "function"
    },
    {
      "constant": true,
      "inputs": [],
      "name": "token",
      "outputs": [
        {
          "name": "",
          "type": "address"
        }
      ],
      "payable": false,
      "stateMutability": "view",
      "type": "function"
    },
    {
      "inputs": [
        {
          "name": "_token",
          "type": "address"
        },
        {
          "name": "_bonusRate",
          "type": "uint256"
        }
      ],
      "payable": false,
      "stateMutability": "nonpayable",
      "type": "constructor"
    },
    {
      "payable": true,
      "stateMutability": "payable",
      "type": "fallback"
    },
    {
      "anonymous": false,
      "inputs": [
        {
          "indexed": false,
          "name": "newOwner",
          "type": "address"
        }
      ],
      "name": "OwnerChanged",
      "type": "event"
    },
    {
      "anonymous": false,
      "inputs": [
        {
          "indexed": false,
          "name": "newBonus",
          "type": "uint256"
        }
      ],
      "name": "BonusChanged",
      "type": "event"
    },
    {
      "anonymous": false,
      "inputs": [
        {
          "indexed": false,
          "name": "from",
          "type": "address"
        },
        {
          "indexed": false,
          "name": "amount",
          "type": "uint256"
        }
      ],
      "name": "Deposited",
      "type": "event"
    },
    {
      "anonymous": false,
      "inputs": [
        {
          "indexed": false,
          "name": "bonus",
          "type": "uint256"
        }
      ],
      "name": "EthBonusSet",
      "type": "event"
    },
    {
      "anonymous": false,
      "inputs": [
        {
          "indexed": false,
          "name": "status",
          "type": "bool"
        }
      ],
      "name": "MultiSendComplete",
      "type": "event"
    },
    {
      "anonymous": false,
      "inputs": [
        {
          "indexed": false,
          "name": "withdrawnTo",
          "type": "address"
        },
        {
          "indexed": false,
          "name": "amount",
          "type": "uint256"
        }
      ],
      "name": "Withdrawn",
      "type": "event"
    },
    {
      "constant": false,
      "inputs": [
        {
          "name": "_newOwner",
          "type": "address"
        }
      ],
      "name": "changeOwner",
      "outputs": [],
      "payable": false,
      "stateMutability": "nonpayable",
      "type": "function"
    },
    {
      "constant": false,
      "inputs": [
        {
          "name": "_newBonus",
          "type": "uint256"
        }
      ],
      "name": "changeBonus",
      "outputs": [],
      "payable": false,
      "stateMutability": "nonpayable",
      "type": "function"
    },
    {
      "constant": false,
      "inputs": [
        {
          "name": "_value",
          "type": "uint256"
        }
      ],
      "name": "deposit",
      "outputs": [
        {
          "name": "",
          "type": "bool"
        }
      ],
      "payable": false,
      "stateMutability": "nonpayable",
      "type": "function"
    },
    {
      "constant": false,
      "inputs": [],
      "name": "multiSendToken",
      "outputs": [],
      "payable": false,
      "stateMutability": "nonpayable",
      "type": "function"
    },
    {
      "constant": false,
      "inputs": [
        {
          "name": "_EthBonus",
          "type": "uint256"
        }
      ],
      "name": "setEthBonus",
      "outputs": [],
      "payable": false,
      "stateMutability": "nonpayable",
      "type": "function"
    },
    {
      "constant": false,
      "inputs": [],
      "name": "multiSendEth",
      "outputs": [],
      "payable": false,
      "stateMutability": "nonpayable",
      "type": "function"
    },
    {
      "constant": false,
      "inputs": [],
      "name": "multiSendTokenComplete",
      "outputs": [],
      "payable": false,
      "stateMutability": "nonpayable",
      "type": "function"
    },
    {
      "constant": false,
      "inputs": [
        {
          "name": "_value",
          "type": "uint256"
        }
      ],
      "name": "withdrawTokens",
      "outputs": [],
      "payable": false,
      "stateMutability": "nonpayable",
      "type": "function"
    },
    {
      "constant": false,
      "inputs": [
        {
          "name": "amount",
          "type": "uint256"
        }
      ],
      "name": "withdrawETH",
      "outputs": [],
      "payable": false,
      "stateMutability": "nonpayable",
      "type": "function"
    },
    {
      "constant": false,
      "inputs": [],
      "name": "checkAllowance",
      "outputs": [
        {
          "name": "",
          "type": "uint256"
        }
      ],
      "payable": false,
      "stateMutability": "nonpayable",
      "type": "function"
    }
  ],
  "bytecode": "0x608060405234801561001057600080fd5b50604051604080611e888339810180604052810190808051906020019092919080519060200190929190505050816000806101000a81548173ffffffffffffffffffffffffffffffffffffffff021916908373ffffffffffffffffffffffffffffffffffffffff16021790555033600360006101000a81548173ffffffffffffffffffffffffffffffffffffffff021916908373ffffffffffffffffffffffffffffffffffffffff160217905550806008819055505050611db2806100d66000396000f3006080604052600436106100f1576000357c0100000000000000000000000000000000000000000000000000000000900463ffffffff1680631b1a7a58146100f3578063315a095d1461010a5780633a36686114610137578063405136fa146101625780635af123f4146101795780635df2df2f146101a45780636293e9ed146101bb5780638bfbc753146101e65780639405de6414610213578063a6f9dae11461023e578063a87430ba14610281578063aa654e451461031d578063b6b55f2514610348578063c1ff808d1461038d578063ed2ff839146103ba578063f14210a6146103e5578063fc0c546a14610412575b005b3480156100ff57600080fd5b50610108610469565b005b34801561011657600080fd5b50610135600480360381019080803590602001909291905050506108e3565b005b34801561014357600080fd5b5061014c610c9b565b6040518082815260200191505060405180910390f35b34801561016e57600080fd5b50610177610ca1565b005b34801561018557600080fd5b5061018e610fa6565b6040518082815260200191505060405180910390f35b3480156101b057600080fd5b506101b9610fac565b005b3480156101c757600080fd5b506101d061104e565b6040518082815260200191505060405180910390f35b3480156101f257600080fd5b5061021160048036038101908080359060200190929190505050611054565b005b34801561021f57600080fd5b50610228611205565b6040518082815260200191505060405180910390f35b34801561024a57600080fd5b5061027f600480360381019080803573ffffffffffffffffffffffffffffffffffffffff16906020019092919050505061133c565b005b34801561028d57600080fd5b506102c2600480360381019080803573ffffffffffffffffffffffffffffffffffffffff1690602001909291905050506114c2565b604051808573ffffffffffffffffffffffffffffffffffffffff1673ffffffffffffffffffffffffffffffffffffffff1681526020018481526020018315151515815260200182815260200194505050505060405180910390f35b34801561032957600080fd5b5061033261151f565b6040518082815260200191505060405180910390f35b34801561035457600080fd5b5061037360048036038101908080359060200190929190505050611525565b604051808215151515815260200191505060405180910390f35b34801561039957600080fd5b506103b8600480360381019080803590602001909291905050506119b3565b005b3480156103c657600080fd5b506103cf611a5f565b6040518082815260200191505060405180910390f35b3480156103f157600080fd5b5061041060048036038101908080359060200190929190505050611a65565b005b34801561041e57600080fd5b50610427611b54565b604051808273ffffffffffffffffffffffffffffffffffffffff1673ffffffffffffffffffffffffffffffffffffffff16815260200191505060405180910390f35b6000610473611cdd565b600080600360009054906101000a900473ffffffffffffffffffffffffffffffffffffffff1673ffffffffffffffffffffffffffffffffffffffff163373ffffffffffffffffffffffffffffffffffffffff161415156104d257600080fd5b60045493505b600280549050841080156104ee575062030d405a115b156108d6576001600060028681548110151561050657fe5b9060005260206000200160009054906101000a900473ffffffffffffffffffffffffffffffffffffffff1673ffffffffffffffffffffffffffffffffffffffff1673ffffffffffffffffffffffffffffffffffffffff16815260200190815260200160002060a060405190810160405290816000820160009054906101000a900473ffffffffffffffffffffffffffffffffffffffff1673ffffffffffffffffffffffffffffffffffffffff1673ffffffffffffffffffffffffffffffffffffffff168152602001600182015481526020016002820160009054906101000a900460ff161515151581526020016003820154815260200160048201805480602002602001604051908101604052809291908181526020016000905b8282101561066757838290600052602060002090600202016040805190810160405290816000820154815260200160018201548152505081526020019060010190610621565b505050508152505092508260600151915069021e19e0c9bab2400000821015156108c9576106b360646106a560085485611b7990919063ffffffff16565b611bb490919063ffffffff16565b9050806000809054906101000a900473ffffffffffffffffffffffffffffffffffffffff1673ffffffffffffffffffffffffffffffffffffffff166370a08231306040518263ffffffff167c0100000000000000000000000000000000000000000000000000000000028152600401808273ffffffffffffffffffffffffffffffffffffffff1673ffffffffffffffffffffffffffffffffffffffff168152602001915050602060405180830381600087803b15801561077257600080fd5b505af1158015610786573d6000803e3d6000fd5b505050506040513d602081101561079c57600080fd5b8101908080519060200190929190505050101515156107ba57600080fd5b6000809054906101000a900473ffffffffffffffffffffffffffffffffffffffff1673ffffffffffffffffffffffffffffffffffffffff1663a9059cbb8460000151836040518363ffffffff167c0100000000000000000000000000000000000000000000000000000000028152600401808373ffffffffffffffffffffffffffffffffffffffff1673ffffffffffffffffffffffffffffffffffffffff16815260200182815260200192505050602060405180830381600087803b15801561088257600080fd5b505af1158015610896573d6000803e3d6000fd5b505050506040513d60208110156108ac57600080fd5b810190808051906020019092919050505015156108c857600080fd5b5b83806001019450506104d8565b8360048190555050505050565b6000806000831115156108f557600080fd5b600160003373ffffffffffffffffffffffffffffffffffffffff1673ffffffffffffffffffffffffffffffffffffffff1681526020019081526020016000209150600090505b81600401805490508110156109d5576224ea00826004018281548110151561095f57fe5b906000526020600020906002020160010154014211156109c8576109b2826004018281548110151561098d57fe5b9060005260206000209060020201600001548360010154611bcf90919063ffffffff16565b82600101819055506109c78183600401611bed565b5b808060010191505061093b565b816001015483111515156109e857600080fd5b826000809054906101000a900473ffffffffffffffffffffffffffffffffffffffff1673ffffffffffffffffffffffffffffffffffffffff166370a08231306040518263ffffffff167c0100000000000000000000000000000000000000000000000000000000028152600401808273ffffffffffffffffffffffffffffffffffffffff1673ffffffffffffffffffffffffffffffffffffffff168152602001915050602060405180830381600087803b158015610aa557600080fd5b505af1158015610ab9573d6000803e3d6000fd5b505050506040513d6020811015610acf57600080fd5b810190808051906020019092919050505010151515610aed57600080fd5b610b04838360010154611cc490919063ffffffff16565b8260010181905550610b23838360030154611cc490919063ffffffff16565b82600301819055506000809054906101000a900473ffffffffffffffffffffffffffffffffffffffff1673ffffffffffffffffffffffffffffffffffffffff1663a9059cbb33856040518363ffffffff167c0100000000000000000000000000000000000000000000000000000000028152600401808373ffffffffffffffffffffffffffffffffffffffff1673ffffffffffffffffffffffffffffffffffffffff16815260200182815260200192505050602060405180830381600087803b158015610bef57600080fd5b505af1158015610c03573d6000803e3d6000fd5b505050506040513d6020811015610c1957600080fd5b8101908080519060200190929190505050507f7084f5476618d8e60b11ef0d7d3f06914655adb8793e28ff7f018d4c76d505d53384604051808373ffffffffffffffffffffffffffffffffffffffff1673ffffffffffffffffffffffffffffffffffffffff1681526020018281526020019250505060405180910390a1505050565b60075481565b6000610cab611cdd565b600080600360009054906101000a900473ffffffffffffffffffffffffffffffffffffffff1673ffffffffffffffffffffffffffffffffffffffff163373ffffffffffffffffffffffffffffffffffffffff16141515610d0a57600080fd5b6000600654111515610d1b57600080fd5b6000600754111515610d2c57600080fd5b60055493505b60028054905084108015610d48575062030d405a115b15610f995760016000600286815481101515610d6057fe5b9060005260206000200160009054906101000a900473ffffffffffffffffffffffffffffffffffffffff1673ffffffffffffffffffffffffffffffffffffffff1673ffffffffffffffffffffffffffffffffffffffff16815260200190815260200160002060a060405190810160405290816000820160009054906101000a900473ffffffffffffffffffffffffffffffffffffffff1673ffffffffffffffffffffffffffffffffffffffff1673ffffffffffffffffffffffffffffffffffffffff168152602001600182015481526020016002820160009054906101000a900460ff161515151581526020016003820154815260200160048201805480602002602001604051908101604052809291908181526020016000905b82821015610ec157838290600052602060002090600202016040805190810160405290816000820154815260200160018201548152505081526020019060010190610e7b565b505050508152505092508260600151915069021e19e0c9bab240000082101515610f8c57610f0e600754610f0084600654611b7990919063ffffffff16565b611bb490919063ffffffff16565b9050803073ffffffffffffffffffffffffffffffffffffffff163110151515610f3657600080fd5b826000015173ffffffffffffffffffffffffffffffffffffffff166108fc670de0b6b3a764000083029081150290604051600060405180830381858888f19350505050158015610f8a573d6000803e3d6000fd5b505b8380600101945050610d32565b8360058190555050505050565b60085481565b600360009054906101000a900473ffffffffffffffffffffffffffffffffffffffff1673ffffffffffffffffffffffffffffffffffffffff163373ffffffffffffffffffffffffffffffffffffffff1614151561100857600080fd5b60006004819055507fdd42ab3c7fddbbfad972d3e5a7227a63f8aac2f2338ed6cfbef04b5e7545a50c6001604051808215151515815260200191505060405180910390a1565b60045481565b600360009054906101000a900473ffffffffffffffffffffffffffffffffffffffff1673ffffffffffffffffffffffffffffffffffffffff163373ffffffffffffffffffffffffffffffffffffffff161415156110b057600080fd5b6000811115156110bf57600080fd5b806006819055506000809054906101000a900473ffffffffffffffffffffffffffffffffffffffff1673ffffffffffffffffffffffffffffffffffffffff166370a08231306040518263ffffffff167c0100000000000000000000000000000000000000000000000000000000028152600401808273ffffffffffffffffffffffffffffffffffffffff1673ffffffffffffffffffffffffffffffffffffffff168152602001915050602060405180830381600087803b15801561118257600080fd5b505af1158015611196573d6000803e3d6000fd5b505050506040513d60208110156111ac57600080fd5b810190808051906020019092919050505060078190555060006005819055507f4d781ca03831c78ea41d2e0deead5994468c3d86eb8809b9fb1694c3ccd3a7e3816040518082815260200191505060405180910390a150565b6000806000809054906101000a900473ffffffffffffffffffffffffffffffffffffffff1673ffffffffffffffffffffffffffffffffffffffff1663dd62ed3e33306040518363ffffffff167c0100000000000000000000000000000000000000000000000000000000028152600401808373ffffffffffffffffffffffffffffffffffffffff1673ffffffffffffffffffffffffffffffffffffffff1681526020018273ffffffffffffffffffffffffffffffffffffffff1673ffffffffffffffffffffffffffffffffffffffff16815260200192505050602060405180830381600087803b1580156112f857600080fd5b505af115801561130c573d6000803e3d6000fd5b505050506040513d602081101561132257600080fd5b810190808051906020019092919050505090508091505090565b600360009054906101000a900473ffffffffffffffffffffffffffffffffffffffff1673ffffffffffffffffffffffffffffffffffffffff163373ffffffffffffffffffffffffffffffffffffffff1614151561139857600080fd5b60008173ffffffffffffffffffffffffffffffffffffffff16141515156113be57600080fd5b600360009054906101000a900473ffffffffffffffffffffffffffffffffffffffff1673ffffffffffffffffffffffffffffffffffffffff168173ffffffffffffffffffffffffffffffffffffffff161415151561141b57600080fd5b80600360006101000a81548173ffffffffffffffffffffffffffffffffffffffff021916908373ffffffffffffffffffffffffffffffffffffffff1602179055507fa2ea9883a321a3e97b8266c2b078bfeec6d50c711ed71f874a90d500ae2eaf3681604051808273ffffffffffffffffffffffffffffffffffffffff1673ffffffffffffffffffffffffffffffffffffffff16815260200191505060405180910390a150565b60016020528060005260406000206000915090508060000160009054906101000a900473ffffffffffffffffffffffffffffffffffffffff16908060010154908060020160009054906101000a900460ff16908060030154905084565b60055481565b60008060008311151561153757600080fd5b826000809054906101000a900473ffffffffffffffffffffffffffffffffffffffff1673ffffffffffffffffffffffffffffffffffffffff1663dd62ed3e33306040518363ffffffff167c0100000000000000000000000000000000000000000000000000000000028152600401808373ffffffffffffffffffffffffffffffffffffffff1673ffffffffffffffffffffffffffffffffffffffff1681526020018273ffffffffffffffffffffffffffffffffffffffff1673ffffffffffffffffffffffffffffffffffffffff16815260200192505050602060405180830381600087803b15801561162857600080fd5b505af115801561163c573d6000803e3d6000fd5b505050506040513d602081101561165257600080fd5b81019080805190602001909291905050501015151561167057600080fd5b600160003373ffffffffffffffffffffffffffffffffffffffff1673ffffffffffffffffffffffffffffffffffffffff16815260200190815260200160002090508060020160009054906101000a900460ff1615156117905760023390806001815401808255809150509060018203906000526020600020016000909192909190916101000a81548173ffffffffffffffffffffffffffffffffffffffff021916908373ffffffffffffffffffffffffffffffffffffffff16021790555050338160000160006101000a81548173ffffffffffffffffffffffffffffffffffffffff021916908373ffffffffffffffffffffffffffffffffffffffff16021790555060018160020160006101000a81548160ff0219169083151502179055505b6117a7838260030154611bcf90919063ffffffff16565b8160030181905550806004016040805190810160405280858152602001428152509080600181540180825580915050906001820390600052602060002090600202016000909192909190915060008201518160000155602082015181600101555050506000809054906101000a900473ffffffffffffffffffffffffffffffffffffffff1673ffffffffffffffffffffffffffffffffffffffff166323b872dd3330866040518463ffffffff167c0100000000000000000000000000000000000000000000000000000000028152600401808473ffffffffffffffffffffffffffffffffffffffff1673ffffffffffffffffffffffffffffffffffffffff1681526020018373ffffffffffffffffffffffffffffffffffffffff1673ffffffffffffffffffffffffffffffffffffffff1681526020018281526020019350505050602060405180830381600087803b15801561190257600080fd5b505af1158015611916573d6000803e3d6000fd5b505050506040513d602081101561192c57600080fd5b8101908080519060200190929190505050507f2da466a7b24304f47e87fa2e1e5a81b9831ce54fec19055ce277ca2f39ba42c43384604051808373ffffffffffffffffffffffffffffffffffffffff1673ffffffffffffffffffffffffffffffffffffffff1681526020018281526020019250505060405180910390a16001915050919050565b600360009054906101000a900473ffffffffffffffffffffffffffffffffffffffff1673ffffffffffffffffffffffffffffffffffffffff163373ffffffffffffffffffffffffffffffffffffffff16141515611a0f57600080fd5b600081111515611a1e57600080fd5b806008819055507f3004fd9893f9a32bdc520978802cadc651d89c5d9a6235f3080819aa599903b8816040518082815260200191505060405180910390a150565b60065481565b600360009054906101000a900473ffffffffffffffffffffffffffffffffffffffff1673ffffffffffffffffffffffffffffffffffffffff163373ffffffffffffffffffffffffffffffffffffffff16141515611ac157600080fd5b600081111515611ad057600080fd5b670de0b6b3a764000081023073ffffffffffffffffffffffffffffffffffffffff163110151515611b0057600080fd5b3373ffffffffffffffffffffffffffffffffffffffff166108fc670de0b6b3a764000083029081150290604051600060405180830381858888f19350505050158015611b50573d6000803e3d6000fd5b5050565b6000809054906101000a900473ffffffffffffffffffffffffffffffffffffffff1681565b6000806000841415611b8e5760009150611bad565b8284029050828482811515611b9f57fe5b04141515611ba957fe5b8091505b5092915050565b6000808284811515611bc257fe5b0490508091505092915050565b6000808284019050838110151515611be357fe5b8091505092915050565b6000818054905083101515611c0157611cbf565b8290505b6001828054905003811015611c73578160018201815481101515611c2557fe5b90600052602060002090600202018282815481101515611c4157fe5b906000526020600020906002020160008201548160000155600182015481600101559050508080600101915050611c05565b816001838054905003815481101515611c8857fe5b90600052602060002090600202016000808201600090556001820160009055505081805480919060019003611cbd9190611d25565b505b505050565b6000828211151515611cd257fe5b818303905092915050565b60a060405190810160405280600073ffffffffffffffffffffffffffffffffffffffff1681526020016000815260200160001515815260200160008152602001606081525090565b815481835581811115611d5257600202816002028360005260206000209182019101611d519190611d57565b5b505050565b611d8391905b80821115611d7f57600080820160009055600182016000905550600201611d5d565b5090565b905600a165627a7a72305820f6f65a6ef965174b5b7cec875030e3c9b1d26abcb622a4ce62a7d455819457870029",
  "source": "pragma solidity ^0.4.23;\n\n\n/**\n * @title SafeMath\n * @dev Math operations with safety checks that throw on error\n */\nlibrary SafeMath {\n\n  /**\n  * @dev Multiplies two numbers, throws on overflow.\n  */\n    function mul(uint256 a, uint256 b) internal pure returns (uint256) {\n        if (a == 0) {\n            return 0;\n        }\n        uint256 c = a * b;\n        assert(c / a == b);\n        return c;\n    }\n\n  /**\n  * @dev Integer division of two numbers, truncating the quotient.\n  */\n    function div(uint256 a, uint256 b) internal pure returns (uint256) {\n        // assert(b > 0); // Solidity automatically throws when dividing by 0\n        uint256 c = a / b;\n        // assert(a == b * c + a % b); // There is no case in which this doesn't hold\n        return c;\n    }\n\n  /**\n  * @dev Substracts two numbers, throws on overflow (i.e. if subtrahend is greater than minuend).\n  */\n    function sub(uint256 a, uint256 b) internal pure returns (uint256) {\n        assert(b <= a);\n        return a - b;\n    }\n\n  /**\n  * @dev Adds two numbers, throws on overflow.\n  */\n    function add(uint256 a, uint256 b) internal pure returns (uint256) {\n        uint256 c = a + b;\n        assert(c >= a);\n        return c;\n    }\n}\n\n/**\n * @title ERC20Basic\n * @dev Simpler version of ERC20 interface\n * @dev see https://github.com/ethereum/EIPs/issues/179\n */\ncontract ERC20Basic {\n    function totalSupply() public view returns (uint256);\n    function balanceOf(address who) public view returns (uint256);\n    function transfer(address to, uint256 value) public returns (bool);\n    event Transfer(address indexed from, address indexed to, uint256 value);\n}\n\n/**\n * @title ERC20 interface\n * @dev see https://github.com/ethereum/EIPs/issues/20\n */\ncontract ERC20 is ERC20Basic {\n    function allowance(address owner, address spender) public view returns (uint256);\n    function transferFrom(address from, address to, uint256 value) public returns (bool);\n    function approve(address spender, uint256 value) public returns (bool);\n    event Approval(address indexed owner, address indexed spender, uint256 value);\n}\n\ncontract Stake{\n\n    using SafeMath for uint;\n    ERC20 public token;\n\n    struct Contribution{\n        uint amount;\n        uint time;\n    }\n\n    struct User{\n        address user;\n        uint amountAvailableToWithdraw;\n        bool exists;\n        uint totalAmount;\n        Contribution[] contributions;       \n    }\n\n    mapping(address => User) public users;\n    \n    address[] usersList;\n    address owner;\n\n    uint public indexOfPayee;\n    uint public indexOfEthSent;\n    uint public EthBonus;\n    uint public stakeContractBalance;\n    uint public bonusRate;\n\n\n    modifier onlyOwner(){\n        require(msg.sender == owner);\n        _;\n    }\n\n    constructor(address _token, uint _bonusRate) public {\n        token = ERC20(_token);\n        owner = msg.sender;\n        bonusRate = _bonusRate;\n    }\n\n    event OwnerChanged(address newOwner);\n\n    function changeOwner(address _newOwner) public onlyOwner {\n        require(_newOwner != 0x0);\n        require(_newOwner != owner);\n        owner = _newOwner;\n\n        emit OwnerChanged(_newOwner);\n    }\n\n    event BonusChanged(uint newBonus);\n\n    function changeBonus(uint _newBonus) public onlyOwner {\n        require(_newBonus > 0);\n        bonusRate = _newBonus;\n\n        emit BonusChanged(_newBonus);\n    }\n\n    event Deposited(address from, uint amount);\n\n    function deposit(uint _value) public returns(bool) {\n        require(_value > 0);\n        require(token.allowance(msg.sender, address(this)) >= _value);\n\n        User storage user = users[msg.sender];\n\n        if(!user.exists){\n            usersList.push(msg.sender);\n            user.user = msg.sender;\n            user.exists = true;\n        }\n        user.totalAmount = user.totalAmount.add(_value);\n        user.contributions.push(Contribution(_value, now));\n        token.transferFrom(msg.sender, address(this), _value);\n\n        emit Deposited(msg.sender, _value);\n\n        return true;\n\n    }\n\n    function multiSendToken() public onlyOwner {\n        uint i = indexOfPayee;\n        \n        while(i<usersList.length && msg.gas > 200000){\n            User memory currentUser = users[usersList[i]];\n            \n            uint amount = currentUser.totalAmount;\n            if(amount >= 10000 * (10 ** 18)){  //TODO\n                uint bonus = amount.mul(bonusRate).div(100);\n\n                require(token.balanceOf(address(this)) >= bonus);\n                require(token.transfer(currentUser.user, bonus));\n            }\n            i++;\n        }\n\n        indexOfPayee = i;\n    }\n\n\n    event EthBonusSet(uint bonus);\n    function setEthBonus(uint _EthBonus) public onlyOwner {\n        require(_EthBonus > 0);\n        EthBonus = _EthBonus;\n        stakeContractBalance = token.balanceOf(address(this));\n        indexOfEthSent = 0;\n\n        emit EthBonusSet(_EthBonus);\n    } \n\n    function multiSendEth() public onlyOwner {\n        require(EthBonus > 0);\n        require(stakeContractBalance > 0);\n        uint i = indexOfEthSent;\n\n        while(i<usersList.length && msg.gas > 200000){\n            User memory currentUser = users[usersList[i]];\n            \n            uint amount = currentUser.totalAmount;\n            if(amount >= 10000 * (10 ** 18)){  //TODO\n                uint EthToSend = EthBonus.mul(amount).div(stakeContractBalance);\n                \n                require(address(this).balance >= EthToSend);\n                currentUser.user.transfer(EthToSend * 1 ether);\n            }\n            i++;\n        }\n\n        indexOfEthSent = i;\n\n    }\n\n    event MultiSendComplete(bool status);\n    function multiSendTokenComplete() public onlyOwner {\n        indexOfPayee = 0;\n        emit MultiSendComplete(true);\n    }\n\n    event Withdrawn(address withdrawnTo, uint amount);\n    function withdrawTokens(uint _value) public {\n        require(_value > 0);\n\n        User storage user = users[msg.sender];\n\n        for(uint q = 0; q < user.contributions.length; q++){\n            if(now > user.contributions[q].time + 4 weeks){\n                user.amountAvailableToWithdraw = user.amountAvailableToWithdraw.add(user.contributions[q].amount);\n                remove(q,user.contributions);\n            }\n        }\n\n        require(_value <= user.amountAvailableToWithdraw);\n        require(token.balanceOf(address(this)) >= _value);\n\n        user.amountAvailableToWithdraw = user.amountAvailableToWithdraw.sub(_value);\n        user.totalAmount = user.totalAmount.sub(_value);\n\n        token.transfer(msg.sender, _value);\n\n        emit Withdrawn(msg.sender, _value);\n\n\n    }\n\n    function remove(uint index, Contribution[] storage contributions) internal {\n        if (index >= contributions.length) return;\n\n        for (uint i = index; i<contributions.length-1; i++){\n            contributions[i] = contributions[i+1];\n        }\n        delete contributions[contributions.length-1];\n        contributions.length--;\n    }\n\n\n    function() public payable{\n\n    }\n\n    function withdrawETH(uint amount) public onlyOwner{\n        require(amount > 0);\n        require(address(this).balance >= amount * 1 ether);\n\n        msg.sender.transfer(amount * 1 ether);\n    }\n\n    function checkAllowance() public returns(uint){\n        uint allowance = token.allowance(msg.sender, address(this));\n        return allowance;\n    }\n    \n\n    \n}",
  "sourcePath": "/Users/sheraz/Clients/Leon/contracts/Stake.sol",
  "compiler": {
    "name": "solc",
    "version": "0.4.24+commit.e67f0147.Emscripten.clang"
  },
  "schemaVersion": "2.0.1",
  "updatedAt": "2018-09-17T13:13:18.506Z"
}