{
  "contractName": "Stake",
  "abi": [
    {
      "constant": true,
      "inputs": [],
      "name": "bonusRate",
      "outputs": [
        {
          "name": "",
          "type": "uint256"
        }
      ],
      "payable": false,
      "stateMutability": "view",
      "type": "function"
    },
    {
      "constant": true,
      "inputs": [],
      "name": "indexOfPayee",
      "outputs": [
        {
          "name": "",
          "type": "uint256"
        }
      ],
      "payable": false,
      "stateMutability": "view",
      "type": "function"
    },
    {
      "constant": true,
      "inputs": [
        {
          "name": "",
          "type": "address"
        }
      ],
      "name": "users",
      "outputs": [
        {
          "name": "user",
          "type": "address"
        },
        {
          "name": "amountAvailableToWithdraw",
          "type": "uint256"
        },
        {
          "name": "exists",
          "type": "bool"
        },
        {
          "name": "totalAmount",
          "type": "uint256"
        }
      ],
      "payable": false,
      "stateMutability": "view",
      "type": "function"
    },
    {
      "constant": true,
      "inputs": [],
      "name": "token",
      "outputs": [
        {
          "name": "",
          "type": "address"
        }
      ],
      "payable": false,
      "stateMutability": "view",
      "type": "function"
    },
    {
      "inputs": [
        {
          "name": "_token",
          "type": "address"
        },
        {
          "name": "_bonusRate",
          "type": "uint256"
        }
      ],
      "payable": false,
      "stateMutability": "nonpayable",
      "type": "constructor"
    },
    {
      "payable": true,
      "stateMutability": "payable",
      "type": "fallback"
    },
    {
      "anonymous": false,
      "inputs": [
        {
          "indexed": false,
          "name": "newOwner",
          "type": "address"
        }
      ],
      "name": "OwnerChanged",
      "type": "event"
    },
    {
      "anonymous": false,
      "inputs": [
        {
          "indexed": false,
          "name": "newBonus",
          "type": "uint256"
        }
      ],
      "name": "BonusChanged",
      "type": "event"
    },
    {
      "anonymous": false,
      "inputs": [
        {
          "indexed": false,
          "name": "from",
          "type": "address"
        },
        {
          "indexed": false,
          "name": "amount",
          "type": "uint256"
        }
      ],
      "name": "Deposited",
      "type": "event"
    },
    {
      "anonymous": false,
      "inputs": [
        {
          "indexed": false,
          "name": "status",
          "type": "bool"
        }
      ],
      "name": "MultiSendComplete",
      "type": "event"
    },
    {
      "anonymous": false,
      "inputs": [
        {
          "indexed": false,
          "name": "withdrawnTo",
          "type": "address"
        },
        {
          "indexed": false,
          "name": "amount",
          "type": "uint256"
        }
      ],
      "name": "Withdrawn",
      "type": "event"
    },
    {
      "constant": false,
      "inputs": [
        {
          "name": "_newOwner",
          "type": "address"
        }
      ],
      "name": "changeOwner",
      "outputs": [],
      "payable": false,
      "stateMutability": "nonpayable",
      "type": "function"
    },
    {
      "constant": false,
      "inputs": [
        {
          "name": "_newBonus",
          "type": "uint256"
        }
      ],
      "name": "changeBonus",
      "outputs": [],
      "payable": false,
      "stateMutability": "nonpayable",
      "type": "function"
    },
    {
      "constant": false,
      "inputs": [
        {
          "name": "_value",
          "type": "uint256"
        }
      ],
      "name": "deposit",
      "outputs": [
        {
          "name": "",
          "type": "bool"
        }
      ],
      "payable": false,
      "stateMutability": "nonpayable",
      "type": "function"
    },
    {
      "constant": false,
      "inputs": [],
      "name": "multiSendToken",
      "outputs": [],
      "payable": false,
      "stateMutability": "nonpayable",
      "type": "function"
    },
    {
      "constant": false,
      "inputs": [],
      "name": "multiSendTokenComplete",
      "outputs": [],
      "payable": false,
      "stateMutability": "nonpayable",
      "type": "function"
    },
    {
      "constant": false,
      "inputs": [
        {
          "name": "_value",
          "type": "uint256"
        }
      ],
      "name": "withdrawTokens",
      "outputs": [],
      "payable": false,
      "stateMutability": "nonpayable",
      "type": "function"
    }
  ],
  "bytecode": "0x608060405234801561001057600080fd5b506040516040806116308339810180604052810190808051906020019092919080519060200190929190505050816000806101000a81548173ffffffffffffffffffffffffffffffffffffffff021916908373ffffffffffffffffffffffffffffffffffffffff16021790555033600360006101000a81548173ffffffffffffffffffffffffffffffffffffffff021916908373ffffffffffffffffffffffffffffffffffffffff16021790555080600581905550505061155a806100d66000396000f3006080604052600436106100a4576000357c0100000000000000000000000000000000000000000000000000000000900463ffffffff1680631b1a7a58146100a6578063315a095d146100bd5780635af123f4146100ea5780635df2df2f146101155780636293e9ed1461012c578063a6f9dae114610157578063a87430ba1461019a578063b6b55f2514610236578063c1ff808d1461027b578063fc0c546a146102a8575b005b3480156100b257600080fd5b506100bb6102ff565b005b3480156100c957600080fd5b506100e860048036038101908080359060200190929190505050610779565b005b3480156100f657600080fd5b506100ff610b31565b6040518082815260200191505060405180910390f35b34801561012157600080fd5b5061012a610b37565b005b34801561013857600080fd5b50610141610bd9565b6040518082815260200191505060405180910390f35b34801561016357600080fd5b50610198600480360381019080803573ffffffffffffffffffffffffffffffffffffffff169060200190929190505050610bdf565b005b3480156101a657600080fd5b506101db600480360381019080803573ffffffffffffffffffffffffffffffffffffffff169060200190929190505050610d65565b604051808573ffffffffffffffffffffffffffffffffffffffff1673ffffffffffffffffffffffffffffffffffffffff1681526020018481526020018315151515815260200182815260200194505050505060405180910390f35b34801561024257600080fd5b5061026160048036038101908080359060200190929190505050610dc2565b604051808215151515815260200191505060405180910390f35b34801561028757600080fd5b506102a660048036038101908080359060200190929190505050611250565b005b3480156102b457600080fd5b506102bd6112fc565b604051808273ffffffffffffffffffffffffffffffffffffffff1673ffffffffffffffffffffffffffffffffffffffff16815260200191505060405180910390f35b6000610309611485565b600080600360009054906101000a900473ffffffffffffffffffffffffffffffffffffffff1673ffffffffffffffffffffffffffffffffffffffff163373ffffffffffffffffffffffffffffffffffffffff1614151561036857600080fd5b60045493505b60028054905084108015610384575062030d405a115b1561076c576001600060028681548110151561039c57fe5b9060005260206000200160009054906101000a900473ffffffffffffffffffffffffffffffffffffffff1673ffffffffffffffffffffffffffffffffffffffff1673ffffffffffffffffffffffffffffffffffffffff16815260200190815260200160002060a060405190810160405290816000820160009054906101000a900473ffffffffffffffffffffffffffffffffffffffff1673ffffffffffffffffffffffffffffffffffffffff1673ffffffffffffffffffffffffffffffffffffffff168152602001600182015481526020016002820160009054906101000a900460ff161515151581526020016003820154815260200160048201805480602002602001604051908101604052809291908181526020016000905b828210156104fd578382906000526020600020906002020160408051908101604052908160008201548152602001600182015481525050815260200190600101906104b7565b505050508152505092508260600151915069021e19e0c9bab24000008210151561075f57610549606461053b6005548561132190919063ffffffff16565b61135c90919063ffffffff16565b9050806000809054906101000a900473ffffffffffffffffffffffffffffffffffffffff1673ffffffffffffffffffffffffffffffffffffffff166370a08231306040518263ffffffff167c0100000000000000000000000000000000000000000000000000000000028152600401808273ffffffffffffffffffffffffffffffffffffffff1673ffffffffffffffffffffffffffffffffffffffff168152602001915050602060405180830381600087803b15801561060857600080fd5b505af115801561061c573d6000803e3d6000fd5b505050506040513d602081101561063257600080fd5b81019080805190602001909291905050501015151561065057600080fd5b6000809054906101000a900473ffffffffffffffffffffffffffffffffffffffff1673ffffffffffffffffffffffffffffffffffffffff1663a9059cbb8460000151836040518363ffffffff167c0100000000000000000000000000000000000000000000000000000000028152600401808373ffffffffffffffffffffffffffffffffffffffff1673ffffffffffffffffffffffffffffffffffffffff16815260200182815260200192505050602060405180830381600087803b15801561071857600080fd5b505af115801561072c573d6000803e3d6000fd5b505050506040513d602081101561074257600080fd5b8101908080519060200190929190505050151561075e57600080fd5b5b838060010194505061036e565b8360048190555050505050565b60008060008311151561078b57600080fd5b600160003373ffffffffffffffffffffffffffffffffffffffff1673ffffffffffffffffffffffffffffffffffffffff1681526020019081526020016000209150600090505b816004018054905081101561086b576224ea0082600401828154811015156107f557fe5b9060005260206000209060020201600101540142111561085e57610848826004018281548110151561082357fe5b906000526020600020906002020160000154836001015461137790919063ffffffff16565b826001018190555061085d8183600401611395565b5b80806001019150506107d1565b8160010154831115151561087e57600080fd5b826000809054906101000a900473ffffffffffffffffffffffffffffffffffffffff1673ffffffffffffffffffffffffffffffffffffffff166370a08231306040518263ffffffff167c0100000000000000000000000000000000000000000000000000000000028152600401808273ffffffffffffffffffffffffffffffffffffffff1673ffffffffffffffffffffffffffffffffffffffff168152602001915050602060405180830381600087803b15801561093b57600080fd5b505af115801561094f573d6000803e3d6000fd5b505050506040513d602081101561096557600080fd5b81019080805190602001909291905050501015151561098357600080fd5b61099a83836001015461146c90919063ffffffff16565b82600101819055506109b983836003015461146c90919063ffffffff16565b82600301819055506000809054906101000a900473ffffffffffffffffffffffffffffffffffffffff1673ffffffffffffffffffffffffffffffffffffffff1663a9059cbb33856040518363ffffffff167c0100000000000000000000000000000000000000000000000000000000028152600401808373ffffffffffffffffffffffffffffffffffffffff1673ffffffffffffffffffffffffffffffffffffffff16815260200182815260200192505050602060405180830381600087803b158015610a8557600080fd5b505af1158015610a99573d6000803e3d6000fd5b505050506040513d6020811015610aaf57600080fd5b8101908080519060200190929190505050507f7084f5476618d8e60b11ef0d7d3f06914655adb8793e28ff7f018d4c76d505d53384604051808373ffffffffffffffffffffffffffffffffffffffff1673ffffffffffffffffffffffffffffffffffffffff1681526020018281526020019250505060405180910390a1505050565b60055481565b600360009054906101000a900473ffffffffffffffffffffffffffffffffffffffff1673ffffffffffffffffffffffffffffffffffffffff163373ffffffffffffffffffffffffffffffffffffffff16141515610b9357600080fd5b60006004819055507fdd42ab3c7fddbbfad972d3e5a7227a63f8aac2f2338ed6cfbef04b5e7545a50c6001604051808215151515815260200191505060405180910390a1565b60045481565b600360009054906101000a900473ffffffffffffffffffffffffffffffffffffffff1673ffffffffffffffffffffffffffffffffffffffff163373ffffffffffffffffffffffffffffffffffffffff16141515610c3b57600080fd5b60008173ffffffffffffffffffffffffffffffffffffffff1614151515610c6157600080fd5b600360009054906101000a900473ffffffffffffffffffffffffffffffffffffffff1673ffffffffffffffffffffffffffffffffffffffff168173ffffffffffffffffffffffffffffffffffffffff1614151515610cbe57600080fd5b80600360006101000a81548173ffffffffffffffffffffffffffffffffffffffff021916908373ffffffffffffffffffffffffffffffffffffffff1602179055507fa2ea9883a321a3e97b8266c2b078bfeec6d50c711ed71f874a90d500ae2eaf3681604051808273ffffffffffffffffffffffffffffffffffffffff1673ffffffffffffffffffffffffffffffffffffffff16815260200191505060405180910390a150565b60016020528060005260406000206000915090508060000160009054906101000a900473ffffffffffffffffffffffffffffffffffffffff16908060010154908060020160009054906101000a900460ff16908060030154905084565b600080600083111515610dd457600080fd5b826000809054906101000a900473ffffffffffffffffffffffffffffffffffffffff1673ffffffffffffffffffffffffffffffffffffffff1663dd62ed3e33306040518363ffffffff167c0100000000000000000000000000000000000000000000000000000000028152600401808373ffffffffffffffffffffffffffffffffffffffff1673ffffffffffffffffffffffffffffffffffffffff1681526020018273ffffffffffffffffffffffffffffffffffffffff1673ffffffffffffffffffffffffffffffffffffffff16815260200192505050602060405180830381600087803b158015610ec557600080fd5b505af1158015610ed9573d6000803e3d6000fd5b505050506040513d6020811015610eef57600080fd5b810190808051906020019092919050505010151515610f0d57600080fd5b600160003373ffffffffffffffffffffffffffffffffffffffff1673ffffffffffffffffffffffffffffffffffffffff16815260200190815260200160002090508060020160009054906101000a900460ff16151561102d5760023390806001815401808255809150509060018203906000526020600020016000909192909190916101000a81548173ffffffffffffffffffffffffffffffffffffffff021916908373ffffffffffffffffffffffffffffffffffffffff16021790555050338160000160006101000a81548173ffffffffffffffffffffffffffffffffffffffff021916908373ffffffffffffffffffffffffffffffffffffffff16021790555060018160020160006101000a81548160ff0219169083151502179055505b61104483826003015461137790919063ffffffff16565b8160030181905550806004016040805190810160405280858152602001428152509080600181540180825580915050906001820390600052602060002090600202016000909192909190915060008201518160000155602082015181600101555050506000809054906101000a900473ffffffffffffffffffffffffffffffffffffffff1673ffffffffffffffffffffffffffffffffffffffff166323b872dd3330866040518463ffffffff167c0100000000000000000000000000000000000000000000000000000000028152600401808473ffffffffffffffffffffffffffffffffffffffff1673ffffffffffffffffffffffffffffffffffffffff1681526020018373ffffffffffffffffffffffffffffffffffffffff1673ffffffffffffffffffffffffffffffffffffffff1681526020018281526020019350505050602060405180830381600087803b15801561119f57600080fd5b505af11580156111b3573d6000803e3d6000fd5b505050506040513d60208110156111c957600080fd5b8101908080519060200190929190505050507f2da466a7b24304f47e87fa2e1e5a81b9831ce54fec19055ce277ca2f39ba42c43384604051808373ffffffffffffffffffffffffffffffffffffffff1673ffffffffffffffffffffffffffffffffffffffff1681526020018281526020019250505060405180910390a16001915050919050565b600360009054906101000a900473ffffffffffffffffffffffffffffffffffffffff1673ffffffffffffffffffffffffffffffffffffffff163373ffffffffffffffffffffffffffffffffffffffff161415156112ac57600080fd5b6000811115156112bb57600080fd5b806005819055507f3004fd9893f9a32bdc520978802cadc651d89c5d9a6235f3080819aa599903b8816040518082815260200191505060405180910390a150565b6000809054906101000a900473ffffffffffffffffffffffffffffffffffffffff1681565b60008060008414156113365760009150611355565b828402905082848281151561134757fe5b0414151561135157fe5b8091505b5092915050565b600080828481151561136a57fe5b0490508091505092915050565b600080828401905083811015151561138b57fe5b8091505092915050565b60008180549050831015156113a957611467565b8290505b600182805490500381101561141b5781600182018154811015156113cd57fe5b906000526020600020906002020182828154811015156113e957fe5b9060005260206000209060020201600082015481600001556001820154816001015590505080806001019150506113ad565b81600183805490500381548110151561143057fe5b9060005260206000209060020201600080820160009055600182016000905550508180548091906001900361146591906114cd565b505b505050565b600082821115151561147a57fe5b818303905092915050565b60a060405190810160405280600073ffffffffffffffffffffffffffffffffffffffff1681526020016000815260200160001515815260200160008152602001606081525090565b8154818355818111156114fa576002028160020283600052602060002091820191016114f991906114ff565b5b505050565b61152b91905b8082111561152757600080820160009055600182016000905550600201611505565b5090565b905600a165627a7a72305820d0f051aa253368d8c50c3437d4a401fe2a1aef3bbbd901d6008989fa114ec78d0029",
  "source": "pragma solidity ^0.4.23;\n\n\n/**\n * @title SafeMath\n * @dev Math operations with safety checks that throw on error\n */\nlibrary SafeMath {\n\n  /**\n  * @dev Multiplies two numbers, throws on overflow.\n  */\n    function mul(uint256 a, uint256 b) internal pure returns (uint256) {\n        if (a == 0) {\n            return 0;\n        }\n        uint256 c = a * b;\n        assert(c / a == b);\n        return c;\n    }\n\n  /**\n  * @dev Integer division of two numbers, truncating the quotient.\n  */\n    function div(uint256 a, uint256 b) internal pure returns (uint256) {\n        // assert(b > 0); // Solidity automatically throws when dividing by 0\n        uint256 c = a / b;\n        // assert(a == b * c + a % b); // There is no case in which this doesn't hold\n        return c;\n    }\n\n  /**\n  * @dev Substracts two numbers, throws on overflow (i.e. if subtrahend is greater than minuend).\n  */\n    function sub(uint256 a, uint256 b) internal pure returns (uint256) {\n        assert(b <= a);\n        return a - b;\n    }\n\n  /**\n  * @dev Adds two numbers, throws on overflow.\n  */\n    function add(uint256 a, uint256 b) internal pure returns (uint256) {\n        uint256 c = a + b;\n        assert(c >= a);\n        return c;\n    }\n}\n\n/**\n * @title ERC20Basic\n * @dev Simpler version of ERC20 interface\n * @dev see https://github.com/ethereum/EIPs/issues/179\n */\ncontract ERC20Basic {\n    function totalSupply() public view returns (uint256);\n    function balanceOf(address who) public view returns (uint256);\n    function transfer(address to, uint256 value) public returns (bool);\n    event Transfer(address indexed from, address indexed to, uint256 value);\n}\n\n/**\n * @title ERC20 interface\n * @dev see https://github.com/ethereum/EIPs/issues/20\n */\ncontract ERC20 is ERC20Basic {\n    function allowance(address owner, address spender) public view returns (uint256);\n    function transferFrom(address from, address to, uint256 value) public returns (bool);\n    function approve(address spender, uint256 value) public returns (bool);\n    event Approval(address indexed owner, address indexed spender, uint256 value);\n}\n\ncontract Stake{\n\n    using SafeMath for uint;\n    ERC20 public token;\n\n    struct Contribution{\n        uint amount;\n        uint time;\n    }\n\n    struct User{\n        address user;\n        uint amountAvailableToWithdraw;\n        bool exists;\n        uint totalAmount;\n        Contribution[] contributions;       \n    }\n\n    mapping(address => User) public users;\n    \n    address[] usersList;\n    address owner;\n\n    uint public indexOfPayee;\n    uint public bonusRate;\n\n\n    modifier onlyOwner(){\n        require(msg.sender == owner);\n        _;\n    }\n\n    constructor(address _token, uint _bonusRate) public {\n        token = ERC20(_token);\n        owner = msg.sender;\n        bonusRate = _bonusRate;\n    }\n\n    event OwnerChanged(address newOwner);\n\n    function changeOwner(address _newOwner) public onlyOwner {\n        require(_newOwner != 0x0);\n        require(_newOwner != owner);\n        owner = _newOwner;\n\n        emit OwnerChanged(_newOwner);\n    }\n\n    event BonusChanged(uint newBonus);\n\n    function changeBonus(uint _newBonus) public onlyOwner {\n        require(_newBonus > 0);\n        bonusRate = _newBonus;\n\n        emit BonusChanged(_newBonus);\n    }\n\n    event Deposited(address from, uint amount);\n\n    function deposit(uint _value) public returns(bool) {\n        require(_value > 0);\n        require(token.allowance(msg.sender, address(this)) >= _value);\n\n        User storage user = users[msg.sender];\n\n        if(!user.exists){\n            usersList.push(msg.sender);\n            user.user = msg.sender;\n            user.exists = true;\n        }\n        user.totalAmount = user.totalAmount.add(_value);\n        user.contributions.push(Contribution(_value, now));\n        token.transferFrom(msg.sender, address(this), _value);\n\n        emit Deposited(msg.sender, _value);\n\n        return true;\n\n    }\n\n    function multiSendToken() public onlyOwner {\n        uint i = indexOfPayee;\n        \n        while(i<usersList.length && msg.gas > 200000){\n            User memory currentUser = users[usersList[i]];\n            \n            uint amount = currentUser.totalAmount;\n            if(amount >= 10000 * (10 ** 18)){  //TODO\n                uint bonus = amount.mul(bonusRate).div(100);\n\n                require(token.balanceOf(address(this)) >= bonus);\n                require(token.transfer(currentUser.user, bonus));\n            }\n            i++;\n        }\n\n        indexOfPayee = i;\n    }\n\n    event MultiSendComplete(bool status);\n    function multiSendTokenComplete() public onlyOwner {\n        indexOfPayee = 0;\n        emit MultiSendComplete(true);\n    }\n\n    event Withdrawn(address withdrawnTo, uint amount);\n    function withdrawTokens(uint _value) public {\n        require(_value > 0);\n\n        User storage user = users[msg.sender];\n\n        for(uint q = 0; q < user.contributions.length; q++){\n            if(now > user.contributions[q].time + 4 weeks){\n                user.amountAvailableToWithdraw = user.amountAvailableToWithdraw.add(user.contributions[q].amount);\n                remove(q,user.contributions);\n            }\n        }\n\n        require(_value <= user.amountAvailableToWithdraw);\n        require(token.balanceOf(address(this)) >= _value);\n\n        user.amountAvailableToWithdraw = user.amountAvailableToWithdraw.sub(_value);\n        user.totalAmount = user.totalAmount.sub(_value);\n\n        token.transfer(msg.sender, _value);\n\n        emit Withdrawn(msg.sender, _value);\n\n\n    }\n\n    function remove(uint index, Contribution[] storage contributions) internal {\n        if (index >= contributions.length) return;\n\n        for (uint i = index; i<contributions.length-1; i++){\n            contributions[i] = contributions[i+1];\n        }\n        delete contributions[contributions.length-1];\n        contributions.length--;\n    }\n\n\n    function() public payable{\n\n    }\n    \n\n    \n}",
  "sourcePath": "/Users/sheraz/Clients/Leon/contracts/Stake.sol",
  "compiler": {
    "name": "solc",
    "version": "0.4.24+commit.e67f0147.Emscripten.clang"
  },
  "schemaVersion": "2.0.1",
  "updatedAt": "2018-09-12T20:09:22.253Z"
}