{
  "contractName": "Stake",
  "abi": [
    {
      "constant": true,
      "inputs": [],
      "name": "stakeContractBalance",
      "outputs": [
        {
          "name": "",
          "type": "uint256"
        }
      ],
      "payable": false,
      "stateMutability": "view",
      "type": "function"
    },
    {
      "constant": true,
      "inputs": [],
      "name": "bonusRate",
      "outputs": [
        {
          "name": "",
          "type": "uint256"
        }
      ],
      "payable": false,
      "stateMutability": "view",
      "type": "function"
    },
    {
      "constant": true,
      "inputs": [],
      "name": "indexOfPayee",
      "outputs": [
        {
          "name": "",
          "type": "uint256"
        }
      ],
      "payable": false,
      "stateMutability": "view",
      "type": "function"
    },
    {
      "constant": true,
      "inputs": [
        {
          "name": "",
          "type": "address"
        }
      ],
      "name": "users",
      "outputs": [
        {
          "name": "user",
          "type": "address"
        },
        {
          "name": "amountAvailableToWithdraw",
          "type": "uint256"
        },
        {
          "name": "exists",
          "type": "bool"
        },
        {
          "name": "totalAmount",
          "type": "uint256"
        },
        {
          "name": "totalBonusReceived",
          "type": "uint256"
        },
        {
          "name": "withdrawCount",
          "type": "uint256"
        }
      ],
      "payable": false,
      "stateMutability": "view",
      "type": "function"
    },
    {
      "constant": true,
      "inputs": [],
      "name": "indexOfEthSent",
      "outputs": [
        {
          "name": "",
          "type": "uint256"
        }
      ],
      "payable": false,
      "stateMutability": "view",
      "type": "function"
    },
    {
      "constant": true,
      "inputs": [],
      "name": "EthBonus",
      "outputs": [
        {
          "name": "",
          "type": "uint256"
        }
      ],
      "payable": false,
      "stateMutability": "view",
      "type": "function"
    },
    {
      "constant": true,
      "inputs": [],
      "name": "token",
      "outputs": [
        {
          "name": "",
          "type": "address"
        }
      ],
      "payable": false,
      "stateMutability": "view",
      "type": "function"
    },
    {
      "inputs": [
        {
          "name": "_token",
          "type": "address"
        },
        {
          "name": "_bonusRate",
          "type": "uint256"
        }
      ],
      "payable": false,
      "stateMutability": "nonpayable",
      "type": "constructor"
    },
    {
      "payable": true,
      "stateMutability": "payable",
      "type": "fallback"
    },
    {
      "anonymous": false,
      "inputs": [
        {
          "indexed": false,
          "name": "newOwner",
          "type": "address"
        }
      ],
      "name": "OwnerChanged",
      "type": "event"
    },
    {
      "anonymous": false,
      "inputs": [
        {
          "indexed": false,
          "name": "newBonus",
          "type": "uint256"
        }
      ],
      "name": "BonusChanged",
      "type": "event"
    },
    {
      "anonymous": false,
      "inputs": [
        {
          "indexed": false,
          "name": "from",
          "type": "address"
        },
        {
          "indexed": false,
          "name": "amount",
          "type": "uint256"
        }
      ],
      "name": "Deposited",
      "type": "event"
    },
    {
      "anonymous": false,
      "inputs": [
        {
          "indexed": false,
          "name": "bonus",
          "type": "uint256"
        }
      ],
      "name": "EthBonusSet",
      "type": "event"
    },
    {
      "anonymous": false,
      "inputs": [
        {
          "indexed": false,
          "name": "status",
          "type": "bool"
        }
      ],
      "name": "MultiSendComplete",
      "type": "event"
    },
    {
      "anonymous": false,
      "inputs": [
        {
          "indexed": false,
          "name": "withdrawnTo",
          "type": "address"
        },
        {
          "indexed": false,
          "name": "amount",
          "type": "uint256"
        }
      ],
      "name": "Withdrawn",
      "type": "event"
    },
    {
      "constant": false,
      "inputs": [
        {
          "name": "_newOwner",
          "type": "address"
        }
      ],
      "name": "changeOwner",
      "outputs": [],
      "payable": false,
      "stateMutability": "nonpayable",
      "type": "function"
    },
    {
      "constant": false,
      "inputs": [
        {
          "name": "_newBonus",
          "type": "uint256"
        }
      ],
      "name": "changeBonus",
      "outputs": [],
      "payable": false,
      "stateMutability": "nonpayable",
      "type": "function"
    },
    {
      "constant": false,
      "inputs": [
        {
          "name": "_value",
          "type": "uint256"
        }
      ],
      "name": "deposit",
      "outputs": [
        {
          "name": "",
          "type": "bool"
        }
      ],
      "payable": false,
      "stateMutability": "nonpayable",
      "type": "function"
    },
    {
      "constant": false,
      "inputs": [],
      "name": "multiSendToken",
      "outputs": [],
      "payable": false,
      "stateMutability": "nonpayable",
      "type": "function"
    },
    {
      "constant": false,
      "inputs": [
        {
          "name": "_EthBonus",
          "type": "uint256"
        }
      ],
      "name": "setEthBonus",
      "outputs": [],
      "payable": false,
      "stateMutability": "nonpayable",
      "type": "function"
    },
    {
      "constant": false,
      "inputs": [],
      "name": "multiSendEth",
      "outputs": [],
      "payable": false,
      "stateMutability": "nonpayable",
      "type": "function"
    },
    {
      "constant": false,
      "inputs": [],
      "name": "multiSendTokenComplete",
      "outputs": [],
      "payable": false,
      "stateMutability": "nonpayable",
      "type": "function"
    },
    {
      "constant": false,
      "inputs": [
        {
          "name": "_value",
          "type": "uint256"
        }
      ],
      "name": "withdrawTokens",
      "outputs": [],
      "payable": false,
      "stateMutability": "nonpayable",
      "type": "function"
    },
    {
      "constant": false,
      "inputs": [
        {
          "name": "amount",
          "type": "uint256"
        }
      ],
      "name": "withdrawETH",
      "outputs": [],
      "payable": false,
      "stateMutability": "nonpayable",
      "type": "function"
    },
    {
      "constant": true,
      "inputs": [],
      "name": "checkAllowance",
      "outputs": [
        {
          "name": "",
          "type": "uint256"
        }
      ],
      "payable": false,
      "stateMutability": "view",
      "type": "function"
    },
    {
      "constant": true,
      "inputs": [],
      "name": "getBonusReceived",
      "outputs": [
        {
          "name": "",
          "type": "uint256"
        }
      ],
      "payable": false,
      "stateMutability": "view",
      "type": "function"
    },
    {
      "constant": true,
      "inputs": [],
      "name": "getContributionsCount",
      "outputs": [
        {
          "name": "",
          "type": "uint256"
        }
      ],
      "payable": false,
      "stateMutability": "view",
      "type": "function"
    },
    {
      "constant": true,
      "inputs": [],
      "name": "getWithdrawCount",
      "outputs": [
        {
          "name": "",
          "type": "uint256"
        }
      ],
      "payable": false,
      "stateMutability": "view",
      "type": "function"
    },
    {
      "constant": true,
      "inputs": [],
      "name": "getLockedTokens",
      "outputs": [
        {
          "name": "",
          "type": "uint256"
        }
      ],
      "payable": false,
      "stateMutability": "view",
      "type": "function"
    }
  ],
  "bytecode": "0x608060405234801561001057600080fd5b5060405160408061252e8339810180604052810190808051906020019092919080519060200190929190505050816000806101000a81548173ffffffffffffffffffffffffffffffffffffffff021916908373ffffffffffffffffffffffffffffffffffffffff16021790555033600360006101000a81548173ffffffffffffffffffffffffffffffffffffffff021916908373ffffffffffffffffffffffffffffffffffffffff160217905550806008819055505050612458806100d66000396000f30060806040526004361061011d576000357c0100000000000000000000000000000000000000000000000000000000900463ffffffff1680631b1a7a581461011f578063315a095d146101365780633317bbcc146101635780633a3668611461018e578063405136fa146101b957806347d04c71146101d05780635af123f4146101fb5780635df2df2f146102265780636293e9ed1461023d5780638bfbc753146102685780639405de6414610295578063a6f9dae1146102c0578063a87430ba14610303578063aa654e45146103ad578063b6b55f25146103d8578063c1ff808d1461041d578063e11b53af1461044a578063ed2ff83914610475578063f14210a6146104a0578063fc0c546a146104cd578063fd0bb75214610524575b005b34801561012b57600080fd5b5061013461054f565b005b34801561014257600080fd5b50610161600480360381019080803590602001909291905050506108fd565b005b34801561016f57600080fd5b50610178610cd5565b6040518082815260200191505060405180910390f35b34801561019a57600080fd5b506101a3610ec8565b6040518082815260200191505060405180910390f35b3480156101c557600080fd5b506101ce610ece565b005b3480156101dc57600080fd5b506101e56111e7565b6040518082815260200191505060405180910390f35b34801561020757600080fd5b50610210611355565b6040518082815260200191505060405180910390f35b34801561023257600080fd5b5061023b61135b565b005b34801561024957600080fd5b506102526113fd565b6040518082815260200191505060405180910390f35b34801561027457600080fd5b5061029360048036038101908080359060200190929190505050611403565b005b3480156102a157600080fd5b506102aa6115b4565b6040518082815260200191505060405180910390f35b3480156102cc57600080fd5b50610301600480360381019080803573ffffffffffffffffffffffffffffffffffffffff1690602001909291905050506116eb565b005b34801561030f57600080fd5b50610344600480360381019080803573ffffffffffffffffffffffffffffffffffffffff169060200190929190505050611871565b604051808773ffffffffffffffffffffffffffffffffffffffff1673ffffffffffffffffffffffffffffffffffffffff16815260200186815260200185151515158152602001848152602001838152602001828152602001965050505050505060405180910390f35b3480156103b957600080fd5b506103c26118da565b6040518082815260200191505060405180910390f35b3480156103e457600080fd5b50610403600480360381019080803590602001909291905050506118e0565b604051808215151515815260200191505060405180910390f35b34801561042957600080fd5b5061044860048036038101908080359060200190929190505050611d6e565b005b34801561045657600080fd5b5061045f611e1a565b6040518082815260200191505060405180910390f35b34801561048157600080fd5b5061048a611f89565b6040518082815260200191505060405180910390f35b3480156104ac57600080fd5b506104cb60048036038101908080359060200190929190505050611f8f565b005b3480156104d957600080fd5b506104e261207e565b604051808273ffffffffffffffffffffffffffffffffffffffff1673ffffffffffffffffffffffffffffffffffffffff16815260200191505060405180910390f35b34801561053057600080fd5b506105396120a3565b6040518082815260200191505060405180910390f35b600080600080600360009054906101000a900473ffffffffffffffffffffffffffffffffffffffff1673ffffffffffffffffffffffffffffffffffffffff163373ffffffffffffffffffffffffffffffffffffffff161415156105b157600080fd5b60045493505b600280549050841080156105cd575062030d405a115b156108f057600160006002868154811015156105e557fe5b9060005260206000200160009054906101000a900473ffffffffffffffffffffffffffffffffffffffff1673ffffffffffffffffffffffffffffffffffffffff1673ffffffffffffffffffffffffffffffffffffffff16815260200190815260200160002092508260030154915069021e19e0c9bab2400000821015156108e35761068e60646106806008548561221190919063ffffffff16565b61224c90919063ffffffff16565b9050806000809054906101000a900473ffffffffffffffffffffffffffffffffffffffff1673ffffffffffffffffffffffffffffffffffffffff166370a08231306040518263ffffffff167c0100000000000000000000000000000000000000000000000000000000028152600401808273ffffffffffffffffffffffffffffffffffffffff1673ffffffffffffffffffffffffffffffffffffffff168152602001915050602060405180830381600087803b15801561074d57600080fd5b505af1158015610761573d6000803e3d6000fd5b505050506040513d602081101561077757600080fd5b81019080805190602001909291905050501015151561079557600080fd5b6107ac81846004015461226790919063ffffffff16565b83600401819055506000809054906101000a900473ffffffffffffffffffffffffffffffffffffffff1673ffffffffffffffffffffffffffffffffffffffff1663a9059cbb8460000160009054906101000a900473ffffffffffffffffffffffffffffffffffffffff16836040518363ffffffff167c0100000000000000000000000000000000000000000000000000000000028152600401808373ffffffffffffffffffffffffffffffffffffffff1673ffffffffffffffffffffffffffffffffffffffff16815260200182815260200192505050602060405180830381600087803b15801561089c57600080fd5b505af11580156108b0573d6000803e3d6000fd5b505050506040513d60208110156108c657600080fd5b810190808051906020019092919050505015156108e257600080fd5b5b83806001019450506105b7565b8360048190555050505050565b60008060008311151561090f57600080fd5b600160003373ffffffffffffffffffffffffffffffffffffffff1673ffffffffffffffffffffffffffffffffffffffff1681526020019081526020016000209150600090505b81600601805490508110156109ef576224ea00826006018281548110151561097957fe5b906000526020600020906002020160010154014211156109e2576109cc82600601828154811015156109a757fe5b906000526020600020906002020160000154836001015461226790919063ffffffff16565b82600101819055506109e18183600601612285565b5b8080600101915050610955565b81600101548311151515610a0257600080fd5b826000809054906101000a900473ffffffffffffffffffffffffffffffffffffffff1673ffffffffffffffffffffffffffffffffffffffff166370a08231306040518263ffffffff167c0100000000000000000000000000000000000000000000000000000000028152600401808273ffffffffffffffffffffffffffffffffffffffff1673ffffffffffffffffffffffffffffffffffffffff168152602001915050602060405180830381600087803b158015610abf57600080fd5b505af1158015610ad3573d6000803e3d6000fd5b505050506040513d6020811015610ae957600080fd5b810190808051906020019092919050505010151515610b0757600080fd5b610b1e83836001015461235c90919063ffffffff16565b8260010181905550610b3d83836003015461235c90919063ffffffff16565b8260030181905550610b5d6001836005015461226790919063ffffffff16565b82600501819055506000809054906101000a900473ffffffffffffffffffffffffffffffffffffffff1673ffffffffffffffffffffffffffffffffffffffff1663a9059cbb33856040518363ffffffff167c0100000000000000000000000000000000000000000000000000000000028152600401808373ffffffffffffffffffffffffffffffffffffffff1673ffffffffffffffffffffffffffffffffffffffff16815260200182815260200192505050602060405180830381600087803b158015610c2957600080fd5b505af1158015610c3d573d6000803e3d6000fd5b505050506040513d6020811015610c5357600080fd5b8101908080519060200190929190505050507f7084f5476618d8e60b11ef0d7d3f06914655adb8793e28ff7f018d4c76d505d53384604051808373ffffffffffffffffffffffffffffffffffffffff1673ffffffffffffffffffffffffffffffffffffffff1681526020018281526020019250505060405180910390a1505050565b6000610cdf612375565b600080600160003373ffffffffffffffffffffffffffffffffffffffff1673ffffffffffffffffffffffffffffffffffffffff16815260200190815260200160002060e060405190810160405290816000820160009054906101000a900473ffffffffffffffffffffffffffffffffffffffff1673ffffffffffffffffffffffffffffffffffffffff1673ffffffffffffffffffffffffffffffffffffffff168152602001600182015481526020016002820160009054906101000a900460ff1615151515815260200160038201548152602001600482015481526020016005820154815260200160068201805480602002602001604051908101604052809291908181526020016000905b82821015610e3157838290600052602060002090600202016040805190810160405290816000820154815260200160018201548152505081526020019060010190610deb565b5050505081525050925060009050600091505b8260c0015151821015610ebf576224ea008360c0015183815181101515610e6757fe5b906020019060200201516020015101421015610eb257610eaf8360c0015183815181101515610e9257fe5b90602001906020020151600001518261226790919063ffffffff16565b90505b8180600101925050610e44565b80935050505090565b60075481565b6000610ed8612375565b600080600360009054906101000a900473ffffffffffffffffffffffffffffffffffffffff1673ffffffffffffffffffffffffffffffffffffffff163373ffffffffffffffffffffffffffffffffffffffff16141515610f3757600080fd5b6000600654111515610f4857600080fd5b6000600754111515610f5957600080fd5b60055493505b60028054905084108015610f75575062030d405a115b156111da5760016000600286815481101515610f8d57fe5b9060005260206000200160009054906101000a900473ffffffffffffffffffffffffffffffffffffffff1673ffffffffffffffffffffffffffffffffffffffff1673ffffffffffffffffffffffffffffffffffffffff16815260200190815260200160002060e060405190810160405290816000820160009054906101000a900473ffffffffffffffffffffffffffffffffffffffff1673ffffffffffffffffffffffffffffffffffffffff1673ffffffffffffffffffffffffffffffffffffffff168152602001600182015481526020016002820160009054906101000a900460ff1615151515815260200160038201548152602001600482015481526020016005820154815260200160068201805480602002602001604051908101604052809291908181526020016000905b82821015611102578382906000526020600020906002020160408051908101604052908160008201548152602001600182015481525050815260200190600101906110bc565b505050508152505092508260600151915069021e19e0c9bab2400000821015156111cd5761114f6007546111418460065461221190919063ffffffff16565b61224c90919063ffffffff16565b9050803073ffffffffffffffffffffffffffffffffffffffff16311015151561117757600080fd5b826000015173ffffffffffffffffffffffffffffffffffffffff166108fc670de0b6b3a764000083029081150290604051600060405180830381858888f193505050501580156111cb573d6000803e3d6000fd5b505b8380600101945050610f5f565b8360058190555050505050565b60006111f1612375565b600160003373ffffffffffffffffffffffffffffffffffffffff1673ffffffffffffffffffffffffffffffffffffffff16815260200190815260200160002060e060405190810160405290816000820160009054906101000a900473ffffffffffffffffffffffffffffffffffffffff1673ffffffffffffffffffffffffffffffffffffffff1673ffffffffffffffffffffffffffffffffffffffff168152602001600182015481526020016002820160009054906101000a900460ff1615151515815260200160038201548152602001600482015481526020016005820154815260200160068201805480602002602001604051908101604052809291908181526020016000905b82821015611340578382906000526020600020906002020160408051908101604052908160008201548152602001600182015481525050815260200190600101906112fa565b505050508152505090508060a0015191505090565b60085481565b600360009054906101000a900473ffffffffffffffffffffffffffffffffffffffff1673ffffffffffffffffffffffffffffffffffffffff163373ffffffffffffffffffffffffffffffffffffffff161415156113b757600080fd5b60006004819055507fdd42ab3c7fddbbfad972d3e5a7227a63f8aac2f2338ed6cfbef04b5e7545a50c6001604051808215151515815260200191505060405180910390a1565b60045481565b600360009054906101000a900473ffffffffffffffffffffffffffffffffffffffff1673ffffffffffffffffffffffffffffffffffffffff163373ffffffffffffffffffffffffffffffffffffffff1614151561145f57600080fd5b60008111151561146e57600080fd5b806006819055506000809054906101000a900473ffffffffffffffffffffffffffffffffffffffff1673ffffffffffffffffffffffffffffffffffffffff166370a08231306040518263ffffffff167c0100000000000000000000000000000000000000000000000000000000028152600401808273ffffffffffffffffffffffffffffffffffffffff1673ffffffffffffffffffffffffffffffffffffffff168152602001915050602060405180830381600087803b15801561153157600080fd5b505af1158015611545573d6000803e3d6000fd5b505050506040513d602081101561155b57600080fd5b810190808051906020019092919050505060078190555060006005819055507f4d781ca03831c78ea41d2e0deead5994468c3d86eb8809b9fb1694c3ccd3a7e3816040518082815260200191505060405180910390a150565b6000806000809054906101000a900473ffffffffffffffffffffffffffffffffffffffff1673ffffffffffffffffffffffffffffffffffffffff1663dd62ed3e33306040518363ffffffff167c0100000000000000000000000000000000000000000000000000000000028152600401808373ffffffffffffffffffffffffffffffffffffffff1673ffffffffffffffffffffffffffffffffffffffff1681526020018273ffffffffffffffffffffffffffffffffffffffff1673ffffffffffffffffffffffffffffffffffffffff16815260200192505050602060405180830381600087803b1580156116a757600080fd5b505af11580156116bb573d6000803e3d6000fd5b505050506040513d60208110156116d157600080fd5b810190808051906020019092919050505090508091505090565b600360009054906101000a900473ffffffffffffffffffffffffffffffffffffffff1673ffffffffffffffffffffffffffffffffffffffff163373ffffffffffffffffffffffffffffffffffffffff1614151561174757600080fd5b60008173ffffffffffffffffffffffffffffffffffffffff161415151561176d57600080fd5b600360009054906101000a900473ffffffffffffffffffffffffffffffffffffffff1673ffffffffffffffffffffffffffffffffffffffff168173ffffffffffffffffffffffffffffffffffffffff16141515156117ca57600080fd5b80600360006101000a81548173ffffffffffffffffffffffffffffffffffffffff021916908373ffffffffffffffffffffffffffffffffffffffff1602179055507fa2ea9883a321a3e97b8266c2b078bfeec6d50c711ed71f874a90d500ae2eaf3681604051808273ffffffffffffffffffffffffffffffffffffffff1673ffffffffffffffffffffffffffffffffffffffff16815260200191505060405180910390a150565b60016020528060005260406000206000915090508060000160009054906101000a900473ffffffffffffffffffffffffffffffffffffffff16908060010154908060020160009054906101000a900460ff16908060030154908060040154908060050154905086565b60055481565b6000806000831115156118f257600080fd5b826000809054906101000a900473ffffffffffffffffffffffffffffffffffffffff1673ffffffffffffffffffffffffffffffffffffffff1663dd62ed3e33306040518363ffffffff167c0100000000000000000000000000000000000000000000000000000000028152600401808373ffffffffffffffffffffffffffffffffffffffff1673ffffffffffffffffffffffffffffffffffffffff1681526020018273ffffffffffffffffffffffffffffffffffffffff1673ffffffffffffffffffffffffffffffffffffffff16815260200192505050602060405180830381600087803b1580156119e357600080fd5b505af11580156119f7573d6000803e3d6000fd5b505050506040513d6020811015611a0d57600080fd5b810190808051906020019092919050505010151515611a2b57600080fd5b600160003373ffffffffffffffffffffffffffffffffffffffff1673ffffffffffffffffffffffffffffffffffffffff16815260200190815260200160002090508060020160009054906101000a900460ff161515611b4b5760023390806001815401808255809150509060018203906000526020600020016000909192909190916101000a81548173ffffffffffffffffffffffffffffffffffffffff021916908373ffffffffffffffffffffffffffffffffffffffff16021790555050338160000160006101000a81548173ffffffffffffffffffffffffffffffffffffffff021916908373ffffffffffffffffffffffffffffffffffffffff16021790555060018160020160006101000a81548160ff0219169083151502179055505b611b6283826003015461226790919063ffffffff16565b8160030181905550806006016040805190810160405280858152602001428152509080600181540180825580915050906001820390600052602060002090600202016000909192909190915060008201518160000155602082015181600101555050506000809054906101000a900473ffffffffffffffffffffffffffffffffffffffff1673ffffffffffffffffffffffffffffffffffffffff166323b872dd3330866040518463ffffffff167c0100000000000000000000000000000000000000000000000000000000028152600401808473ffffffffffffffffffffffffffffffffffffffff1673ffffffffffffffffffffffffffffffffffffffff1681526020018373ffffffffffffffffffffffffffffffffffffffff1673ffffffffffffffffffffffffffffffffffffffff1681526020018281526020019350505050602060405180830381600087803b158015611cbd57600080fd5b505af1158015611cd1573d6000803e3d6000fd5b505050506040513d6020811015611ce757600080fd5b8101908080519060200190929190505050507f2da466a7b24304f47e87fa2e1e5a81b9831ce54fec19055ce277ca2f39ba42c43384604051808373ffffffffffffffffffffffffffffffffffffffff1673ffffffffffffffffffffffffffffffffffffffff1681526020018281526020019250505060405180910390a16001915050919050565b600360009054906101000a900473ffffffffffffffffffffffffffffffffffffffff1673ffffffffffffffffffffffffffffffffffffffff163373ffffffffffffffffffffffffffffffffffffffff16141515611dca57600080fd5b600081111515611dd957600080fd5b806008819055507f3004fd9893f9a32bdc520978802cadc651d89c5d9a6235f3080819aa599903b8816040518082815260200191505060405180910390a150565b6000611e24612375565b600160003373ffffffffffffffffffffffffffffffffffffffff1673ffffffffffffffffffffffffffffffffffffffff16815260200190815260200160002060e060405190810160405290816000820160009054906101000a900473ffffffffffffffffffffffffffffffffffffffff1673ffffffffffffffffffffffffffffffffffffffff1673ffffffffffffffffffffffffffffffffffffffff168152602001600182015481526020016002820160009054906101000a900460ff1615151515815260200160038201548152602001600482015481526020016005820154815260200160068201805480602002602001604051908101604052809291908181526020016000905b82821015611f7357838290600052602060002090600202016040805190810160405290816000820154815260200160018201548152505081526020019060010190611f2d565b505050508152505090508060c001515191505090565b60065481565b600360009054906101000a900473ffffffffffffffffffffffffffffffffffffffff1673ffffffffffffffffffffffffffffffffffffffff163373ffffffffffffffffffffffffffffffffffffffff16141515611feb57600080fd5b600081111515611ffa57600080fd5b670de0b6b3a764000081023073ffffffffffffffffffffffffffffffffffffffff16311015151561202a57600080fd5b3373ffffffffffffffffffffffffffffffffffffffff166108fc670de0b6b3a764000083029081150290604051600060405180830381858888f1935050505015801561207a573d6000803e3d6000fd5b5050565b6000809054906101000a900473ffffffffffffffffffffffffffffffffffffffff1681565b60006120ad612375565b600160003373ffffffffffffffffffffffffffffffffffffffff1673ffffffffffffffffffffffffffffffffffffffff16815260200190815260200160002060e060405190810160405290816000820160009054906101000a900473ffffffffffffffffffffffffffffffffffffffff1673ffffffffffffffffffffffffffffffffffffffff1673ffffffffffffffffffffffffffffffffffffffff168152602001600182015481526020016002820160009054906101000a900460ff1615151515815260200160038201548152602001600482015481526020016005820154815260200160068201805480602002602001604051908101604052809291908181526020016000905b828210156121fc578382906000526020600020906002020160408051908101604052908160008201548152602001600182015481525050815260200190600101906121b6565b50505050815250509050806080015191505090565b60008060008414156122265760009150612245565b828402905082848281151561223757fe5b0414151561224157fe5b8091505b5092915050565b600080828481151561225a57fe5b0490508091505092915050565b600080828401905083811015151561227b57fe5b8091505092915050565b600081805490508310151561229957612357565b8290505b600182805490500381101561230b5781600182018154811015156122bd57fe5b906000526020600020906002020182828154811015156122d957fe5b90600052602060002090600202016000820154816000015560018201548160010155905050808060010191505061229d565b81600183805490500381548110151561232057fe5b9060005260206000209060020201600080820160009055600182016000905550508180548091906001900361235591906123cb565b505b505050565b600082821115151561236a57fe5b818303905092915050565b60e060405190810160405280600073ffffffffffffffffffffffffffffffffffffffff16815260200160008152602001600015158152602001600081526020016000815260200160008152602001606081525090565b8154818355818111156123f8576002028160020283600052602060002091820191016123f791906123fd565b5b505050565b61242991905b8082111561242557600080820160009055600182016000905550600201612403565b5090565b905600a165627a7a72305820af05cb527578172d8933a0d9e5fbdeaf9a6ddf30dd1b35ae46d60464bebb93cb0029",
  "source": "pragma solidity ^0.4.23;\n\n\n/**\n * @title SafeMath\n * @dev Math operations with safety checks that throw on error\n */\nlibrary SafeMath {\n\n  /**\n  * @dev Multiplies two numbers, throws on overflow.\n  */\n    function mul(uint256 a, uint256 b) internal pure returns (uint256) {\n        if (a == 0) {\n            return 0;\n        }\n        uint256 c = a * b;\n        assert(c / a == b);\n        return c;\n    }\n\n  /**\n  * @dev Integer division of two numbers, truncating the quotient.\n  */\n    function div(uint256 a, uint256 b) internal pure returns (uint256) {\n        // assert(b > 0); // Solidity automatically throws when dividing by 0\n        uint256 c = a / b;\n        // assert(a == b * c + a % b); // There is no case in which this doesn't hold\n        return c;\n    }\n\n  /**\n  * @dev Substracts two numbers, throws on overflow (i.e. if subtrahend is greater than minuend).\n  */\n    function sub(uint256 a, uint256 b) internal pure returns (uint256) {\n        assert(b <= a);\n        return a - b;\n    }\n\n  /**\n  * @dev Adds two numbers, throws on overflow.\n  */\n    function add(uint256 a, uint256 b) internal pure returns (uint256) {\n        uint256 c = a + b;\n        assert(c >= a);\n        return c;\n    }\n}\n\n/**\n * @title ERC20Basic\n * @dev Simpler version of ERC20 interface\n * @dev see https://github.com/ethereum/EIPs/issues/179\n */\ncontract ERC20Basic {\n    function totalSupply() public view returns (uint256);\n    function balanceOf(address who) public view returns (uint256);\n    function transfer(address to, uint256 value) public returns (bool);\n    event Transfer(address indexed from, address indexed to, uint256 value);\n}\n\n/**\n * @title ERC20 interface\n * @dev see https://github.com/ethereum/EIPs/issues/20\n */\ncontract ERC20 is ERC20Basic {\n    function allowance(address owner, address spender) public view returns (uint256);\n    function transferFrom(address from, address to, uint256 value) public returns (bool);\n    function approve(address spender, uint256 value) public returns (bool);\n    event Approval(address indexed owner, address indexed spender, uint256 value);\n}\n\ncontract Stake{\n\n    using SafeMath for uint;\n    ERC20 public token;\n\n    struct Contribution{\n        uint amount;\n        uint time;\n    }\n\n    struct User{\n        address user;\n        uint amountAvailableToWithdraw;\n        bool exists;\n        uint totalAmount;\n        uint totalBonusReceived;\n        uint withdrawCount;\n        Contribution[] contributions;       \n    }\n\n    mapping(address => User) public users;\n    \n    address[] usersList;\n    address owner;\n\n    uint public indexOfPayee;\n    uint public indexOfEthSent;\n    uint public EthBonus;\n    uint public stakeContractBalance;\n    uint public bonusRate;\n\n\n    modifier onlyOwner(){\n        require(msg.sender == owner);\n        _;\n    }\n\n    constructor(address _token, uint _bonusRate) public {\n        token = ERC20(_token);\n        owner = msg.sender;\n        bonusRate = _bonusRate;\n    }\n\n    event OwnerChanged(address newOwner);\n\n    function changeOwner(address _newOwner) public onlyOwner {\n        require(_newOwner != 0x0);\n        require(_newOwner != owner);\n        owner = _newOwner;\n\n        emit OwnerChanged(_newOwner);\n    }\n\n    event BonusChanged(uint newBonus);\n\n    function changeBonus(uint _newBonus) public onlyOwner {\n        require(_newBonus > 0);\n        bonusRate = _newBonus;\n\n        emit BonusChanged(_newBonus);\n    }\n\n    event Deposited(address from, uint amount);\n\n    function deposit(uint _value) public returns(bool) {\n        require(_value > 0);\n        require(token.allowance(msg.sender, address(this)) >= _value);\n\n        User storage user = users[msg.sender];\n\n        if(!user.exists){\n            usersList.push(msg.sender);\n            user.user = msg.sender;\n            user.exists = true;\n        }\n        user.totalAmount = user.totalAmount.add(_value);\n        user.contributions.push(Contribution(_value, now));\n        token.transferFrom(msg.sender, address(this), _value);\n\n        emit Deposited(msg.sender, _value);\n\n        return true;\n\n    }\n\n    function multiSendToken() public onlyOwner {\n        uint i = indexOfPayee;\n        \n        while(i<usersList.length && msg.gas > 200000){\n            User storage currentUser = users[usersList[i]];\n            \n            uint amount = currentUser.totalAmount;\n            if(amount >= 10000 * (10 ** 18)){  //TODO\n                uint bonus = amount.mul(bonusRate).div(100);\n\n                require(token.balanceOf(address(this)) >= bonus);\n                currentUser.totalBonusReceived = currentUser.totalBonusReceived.add(bonus);\n                require(token.transfer(currentUser.user, bonus));\n            }\n            i++;\n        }\n\n        indexOfPayee = i;\n    }\n\n\n    event EthBonusSet(uint bonus);\n    function setEthBonus(uint _EthBonus) public onlyOwner {\n        require(_EthBonus > 0);\n        EthBonus = _EthBonus;\n        stakeContractBalance = token.balanceOf(address(this));\n        indexOfEthSent = 0;\n\n        emit EthBonusSet(_EthBonus);\n    } \n\n    function multiSendEth() public onlyOwner {\n        require(EthBonus > 0);\n        require(stakeContractBalance > 0);\n        uint i = indexOfEthSent;\n\n        while(i<usersList.length && msg.gas > 200000){\n            User memory currentUser = users[usersList[i]];\n            \n            uint amount = currentUser.totalAmount;\n            if(amount >= 10000 * (10 ** 18)){  //TODO\n                uint EthToSend = EthBonus.mul(amount).div(stakeContractBalance);\n                \n                require(address(this).balance >= EthToSend);\n                currentUser.user.transfer(EthToSend * 1 ether);\n            }\n            i++;\n        }\n\n        indexOfEthSent = i;\n\n    }\n\n    event MultiSendComplete(bool status);\n    function multiSendTokenComplete() public onlyOwner {\n        indexOfPayee = 0;\n        emit MultiSendComplete(true);\n    }\n\n    event Withdrawn(address withdrawnTo, uint amount);\n    function withdrawTokens(uint _value) public {\n        require(_value > 0);\n\n        User storage user = users[msg.sender];\n\n        for(uint q = 0; q < user.contributions.length; q++){\n            if(now > user.contributions[q].time + 4 weeks){\n                user.amountAvailableToWithdraw = user.amountAvailableToWithdraw.add(user.contributions[q].amount);\n                remove(q,user.contributions);\n            }\n        }\n\n        require(_value <= user.amountAvailableToWithdraw);\n        require(token.balanceOf(address(this)) >= _value);\n\n        user.amountAvailableToWithdraw = user.amountAvailableToWithdraw.sub(_value);\n        user.totalAmount = user.totalAmount.sub(_value);\n\n        user.withdrawCount = user.withdrawCount.add(1);\n\n        token.transfer(msg.sender, _value);\n\n        emit Withdrawn(msg.sender, _value);\n\n\n    }\n\n    function remove(uint index, Contribution[] storage contributions) internal {\n        if (index >= contributions.length) return;\n\n        for (uint i = index; i<contributions.length-1; i++){\n            contributions[i] = contributions[i+1];\n        }\n        delete contributions[contributions.length-1];\n        contributions.length--;\n    }\n\n\n    function() public payable{\n\n    }\n\n    function withdrawETH(uint amount) public onlyOwner{\n        require(amount > 0);\n        require(address(this).balance >= amount * 1 ether);\n\n        msg.sender.transfer(amount * 1 ether);\n    }\n\n    function checkAllowance() public view returns(uint){\n        uint allowance = token.allowance(msg.sender, address(this));\n        return allowance;\n    }\n\n    function getBonusReceived() public view returns(uint){\n        User memory user = users[msg.sender];\n        return user.totalBonusReceived;\n    }\n    \n    function getContributionsCount() public view returns(uint){\n        User memory user = users[msg.sender];\n        return user.contributions.length;\n    }\n\n    function getWithdrawCount() public view returns(uint){\n        User memory user = users[msg.sender];\n        return user.withdrawCount;\n    }\n\n    function getLockedTokens() public view returns(uint){\n        User memory user = users[msg.sender];\n\n        uint i;\n        uint lockedTokens = 0;\n        for(i = 0; i < user.contributions.length; i++){\n            if(now < user.contributions[i].time + 4 weeks){\n                lockedTokens = lockedTokens.add(user.contributions[i].amount);\n            }\n        }\n\n        return lockedTokens;\n\n    }\n\n    \n}",
  "sourcePath": "/Users/sheraz/Clients/Leon/contracts/Stake.sol",
  "compiler": {
    "name": "solc",
    "version": "0.4.24+commit.e67f0147.Emscripten.clang"
  },
  "schemaVersion": "2.0.1",
  "updatedAt": "2018-09-18T10:40:57.707Z"
}